:100000000C94E2020C940A030C940A030C940A0365
:100010000C940A030C940A030C940A030C940A032C
:100020000C940A030C940A030C940A030C940A031C
:100030000C940A030C940A030C940A030C940A030C
:100040000C94D60B0C940A030C940A030C940A0328
:100050000C940A030C940A030C940A030C940A03EC
:100060000C940A030C940A030000000024002700EB
:100070002A0000000000250028002B0000000000DE
:1000800023002600290004040404040404040202DA
:100090000202020203030303030301020408102007
:1000A0004080010204081020010204081020000012
:1000B0000008000201000003040700000000000027
:1000C000000000000000003E5B4F5B3E3E6B4F6B4C
:1000D0003E1C3E7C3E1C183C7E3C181C577D571C29
:1000E0001C5E7F5E1C00183C1800FFE7C3E7FF00A2
:1000F00018241800FFE7DBE7FF30483A060E2629F0
:10010000792926407F050507407F05253F5A3CE7B2
:100110003C5A7F3E1C1C08081C1C3E7F14227F2278
:10012000145F5F005F5F06097F017F006689956A43
:10013000606060606094A2FFA29408047E040810CE
:10014000207E201008082A1C08081C2A08081E10F7
:100150001010100C1E0C1E0C30383E3830060E3EAF
:100160000E06000000000000005F0000000700070E
:1001700000147F147F14242A7F2A12231308646238
:1001800036495620500008070300001C2241000099
:1001900041221C002A1C7F1C2A08083E08080080F7
:1001A000703000080808080800006060002010088F
:1001B00004023E5149453E00427F40007249494990
:1001C000462141494D331814127F102745454539C2
:1001D0003C4A4949314121110907364949493646C6
:1001E0004949291E000014000000403400000008A6
:1001F0001422411414141414004122140802015949
:1002000009063E415D594E7C1211127C7F494949D5
:10021000363E414141227F4141413E7F494949416A
:100220007F090909013E414151737F0808087F0099
:10023000417F41002040413F017F081422417F401F
:100240004040407F021C027F7F0408107F3E4141F6
:10025000413E7F090909063E4151215E7F09192966
:1002600046264949493203017F01033F4040403F50
:100270001F2040201F3F4038403F63140814630391
:10028000047804036159494D43007F414141020410
:10029000081020004141417F040201020440404017
:1002A0004040000307080020545478407F2844440D
:1002B000383844444428384444287F385454541827
:1002C00000087E090218A4A49C787F080404780022
:1002D000447D40002040403D007F10284400004104
:1002E0007F40007C047804787C0804047838444417
:1002F0004438FC1824241818242418FC7C0804040E
:1003000008485454542404043F44243C4040207C76
:100310001C2040201C3C4030403C44281028444CC9
:100320009090907C4464544C440008364100000096
:10033000770000004136080002010204023C262337
:10034000263C1EA1A161123A4040207A38545455EF
:1003500059215555794122545478422155547840B9
:1003600020545579400C1E52721239555555593941
:100370005454545939555454580000457C41000296
:10038000457D420001457C407D1211127DF02825FB
:1003900028F07C545545002054547C547C0A097F35
:1003A0004932494949323A4444443A324A48483049
:1003B0003A4141217A3A42402078009DA0A07D3DFB
:1003C0004242423D3D4040403D3C24FF2424487E83
:1003D0004943662B2FFC2F2BFF0929F620C0887E6E
:1003E000090320545479410000447D413048484A73
:1003F00032384040227A007A0A0A727D0D19317D26
:100400002629292F28262929292630484D402038F9
:100410000808080808080808382F10C8ACBA2F10B8
:100420002834FA00007B000008142A142222142A1F
:1004300014085500550055AA55AA55AAFF55FF5551
:10044000FF000000FF00101010FF00141414FF0044
:100450001010FF00FF1010F010F0141414FC001422
:1004600014F700FF0000FF00FF1414F404FC141440
:1004700017101F10101F101F1414141F001010103D
:10048000F0000000001F101010101F10101010F0CE
:1004900010000000FF101010101010101010FF10AE
:1004A000000000FF140000FF00FF00001F101700F5
:1004B00000FC04F414141710171414F404F40000CE
:1004C000FF00F714141414141414F700F714141480
:1004D000171410101F101F141414F4141010F0101F
:1004E000F000001F101F0000001F14000000FC148B
:1004F0000000F010F01010FF10FF141414FF14107F
:1005000010101F00000000F010FFFFFFFFFFF0F0D1
:10051000F0F0F0FFFFFF0000000000FFFF0F0F0FE3
:100520000F0F3844443844FC4A4A4A347E020206DB
:1005300006027E027E0263554941633844443C040E
:10054000407E201E2006027E020299A5E7A5991C86
:100550002A492A1C4C7201724C304A4D4D303048A9
:10056000784830BC625A463D3E494949007E010107
:10057000017E2A2A2A2A2A44445F444440514A449C
:100580004040444A51400000FF0103E080FF00006A
:1005900008086B6B083612362436060F090F060062
:1005A0000018180000001010003040FF0101001F6B
:1005B00001011E00191D1712003C3C3C3C000000CC
:1005C0000000F21311241FBECFEFD8E0DEBFCDBF75
:1005D00013E0A0E0B1E0E6E8FDE202C005900D9274
:1005E000A434B107D9F723E0A4E4B3E001C01D921D
:1005F000A03BB207E1F712E0C2EED2E004C02197BF
:10060000FE010E947314C13ED107C9F70E94200C5D
:100610000C94C1160C9400009091A0039F3F21F40C
:100620009091A1039F3F59F128E030E040E8E0912C
:10063000AB03F091AC0350819091AE03909595235C
:100640009083E091A903F091AA039091AD03582FF4
:10065000542319F05081952B03C050819095952318
:100660009083E091AB03F091AC0350819091AE0385
:10067000952B9083469521503109C9F608958EBD7A
:1006800000000DB407FEFDCF8EB50895833081F0D4
:1006900028F4813099F08230A1F008958730A9F0D4
:1006A0008830B9F08430D1F4809180008F7D03C010
:1006B000809180008F7780938000089584B58F7734
:1006C00002C084B58F7D84BD08958091B0008F777E
:1006D00003C08091B0008F7D8093B00008953FB734
:1006E000F8948091810390918203A0918303B0914B
:1006F000840326B5A89B05C02F3F19F00196A11DC4
:10070000B11D3FBFBA2FA92F982F8827820F911DA7
:10071000A11DB11DBC01CD0142E0660F771F881FEE
:10072000991F4A95D1F70895009769F0FC0101904F
:100730000020E9F73197AF01481B590BBC0185E850
:1007400093E00C94CA0780E090E008958F929F9206
:10075000AF92BF920F931F93CF93DF93CDB7DEB7C6
:10076000A1970FB6F894DEBF0FBECDBF19A24230DD
:1007700008F44AE08E010F5D1F4F842E912CA12CAE
:10078000B12CA50194010E945114E62FB901CA01B0
:1007900001501109EA3014F4E05D01C0E95CD801B0
:1007A000EC93232B242B252B61F7C8010E94940383
:1007B000A1960FB6F894DEBF0FBECDBFDF91CF91EB
:1007C0001F910F91BF90AF909F908F900895CF92FF
:1007D000DF92EF92FF92CF93DF936C01990FEE08B7
:1007E000FF08F7FE19C06DE285E893E00E94FE0A5B
:1007F000EC0166277727CB016C197D098E099F09CB
:100800004AE00E94A6038C0F9D1FDF91CF91FF90BD
:10081000EF90DF90CF9008954AE0C701B601DF91D5
:10082000CF91FF90EF90DF90CF900C94A6032F9282
:100830003F924F925F926F927F928F929F92AF9270
:10084000BF92CF92DF92EF92FF920F931F93CF93BD
:10085000DF93CDB7DEB76B970FB6F894DEBF0FBE50
:10086000CDBF9B8F8A8F1B014A01D22E1987088723
:100870003701A982DC0159962D913C915A97211597
:10088000310509F0FFC018968D919C911997681752
:1008900079070CF0E7C11A968D919C911B97481728
:1008A00059070CF0DFC1EC2DF0E0FB83EA839B01DC
:1008B00046E0C49E200D311D11243D872C87121661
:1008C00013060CF0CFC16A2D70E07B876A8783E046
:1008D000660F771F8A95E1F77F876E87CB01880DBA
:1008E000991D181619060CF0BDC158968C918111EE
:1008F00004C08FEA8D1508F4D394AA8DBB8DED91B9
:10090000FC9111970284F385E02DCD010995B5E0A6
:10091000DB9EC0011124EC2DF0E0F98BE88B9101F6
:100920002B5F3F4F3B8B2A8B3D822C822101AC01F8
:10093000421953095D8B4C8B7981672F70E07F8B57
:100940006E8BC4010896998F888FEC89FD89E40D20
:10095000F51DEE53FF4FD49054019F828E82D0FE3E
:1009600016C0AA8DBB8DED91FC91B1E0CB1209C0F0
:100970002981213031F40484F585E02D28853985DD
:1009800019C00684F785E02DE884F9841DC04885E8
:1009900059854615570519F1AA8DBB8DED91FC912E
:1009A000B1E0CB120DC02981213051F40484F585CA
:1009B000E02D9301A501B2018A8D9B8D09950FC091
:1009C0000684F785E02D73010A851B852A813B810A
:1009D0004E815F816C817D818A8D9B8D0995D69436
:1009E0003FEFA31AB30A4E815F816E897F89460F5C
:1009F000571F5F834E83888D998DA816B90609F01D
:100A0000AECF9FEF491A590AAC81BD81E889F989B7
:100A1000AE0FBF1FBD83AC832A893B8942165306A4
:100A200009F093CF488559854615570509F4F8C054
:100A3000AA8DBB8DED91FC91B1E0CB1211C0298143
:100A4000213071F4B1016B5F7F4F0088F189E02D97
:100A5000830128E030E0A4018A8D9B8D0995E0C0D8
:100A60006C857D854A815B81641B750B0684F785E7
:100A7000E02D73010E851F859A01A4018A8D9B8D3F
:100A80000995CEC0F9013496E491DE1AF901329647
:100A900085919491B7E0DB9E800D911D1124F901A1
:100AA000259134913B8B2A8BFC012591349159017E
:100AB000FC0132965490319634913C873296749072
:100AC0003196149141E04C1518F05981523068F07C
:100AD000672D072C000C770B7D836C83812F012EF3
:100AE000000C990B9B838A8304C01B821A821D828F
:100AF0001C82AA8DBB8DED91FC9111970284F38528
:100B0000E02DCD010995412CD12C612CF981EF2FDD
:100B1000F0E0FF83EE832C2D30E03B872A87A40191
:100B2000410F511D17FD5A955F8B4E8BB101670D1B
:100B3000711D77FC7A95798F688F7C85671608F030
:100B40006FC0262D30E04A815B81420F531FAE817A
:100B5000BF81A49FC001A59F900DB49F900D11244B
:100B6000F401E80FF91FF98BE88B842D712C4E8965
:100B70005F89420F531F5D8B4C8B751408F04DC07D
:100B800051E0580F5E87877041F4C5010196EA89EC
:100B9000FB89EA0DFB1DD4905C01D7FE3AC061E0F1
:100BA000C61216C07981713099F4AA8DBB8DED9172
:100BB000FC9111970484F585E02D288539854C89B1
:100BC0005D89688D798D670D711DCD01099521C0F5
:100BD0008C819D81870D911DEA85FB858E9FB001DB
:100BE0008F9F700D9E9F700D1124620D731DAA8D35
:100BF000BB8DED91FC9111970684F785E02DE8847B
:100C0000F9840E811F812A853B8548895989CD0148
:100C10000995DD0C73948E85B0CF450C63948DCF10
:100C2000AA8DBB8DED91FC9111970688F789E02D77
:100C3000CD016B960FB6F894DEBF0FBECDBFDF912E
:100C4000CF911F910F91FF90EF90DF90CF90BF90C9
:100C5000AF909F908F907F906F905F904F903F905C
:100C60002F9009946B960FB6F894DEBF0FBECDBFE0
:100C7000DF91CF911F910F91FF90EF90DF90CF9078
:100C8000BF90AF909F908F907F906F905F904F90AC
:100C90003F902F900895CF93DF93282F30E0F901F4
:100CA000E255FF4F8491F901E656FF4FD491F901C7
:100CB000EA57FF4FC491CC2391F081110E94460363
:100CC000EC2FF0E0EE0FFF1FE458FF4FA591B49119
:100CD000EC91ED2381E090E021F480E002C080E01F
:100CE00090E0DF91CF9108951F93CF93DF93282F4A
:100CF00030E0F901E255FF4F8491F901E656FF4FCC
:100D0000D491F901EA57FF4FC491CC23C1F0162FBB
:100D100081110E944603EC2FF0E0EE0FFF1FEE580A
:100D2000FF4FA591B4919FB7F894111104C08C9115
:100D3000D095D82302C0EC91DE2BDC939FBFDF91CE
:100D4000CF911F910895CF93C82F60E08091A203A7
:100D50000E9474068091A40318161CF460E00E949F
:100D600074068C2F0E940C038091A403181624F49F
:100D700061E0CF910C947406CF910895CF93C82F62
:100D800087FDCFE7C093A50381E20E94A3068C2FC5
:100D900080680E94A30680E2CF910C94A306CF93B3
:100DA000DF9390E0FC01E656FF4F2491FC01EA57E7
:100DB000FF4F8491882361F190E0880F991FFC0117
:100DC000E859FF4FC591D491FC01EE58FF4FA59112
:100DD000B491611109C09FB7F8948881209582234E
:100DE0008883EC912E230BC0623061F49FB7F89496
:100DF0008881322F309583238883EC912E2B2C937E
:100E00009FBF06C08FB7F894E8812E2B28838FBF31
:100E1000DF91CF9108958F929F92AF92BF92CF9220
:100E2000DF92EF92FF926B017C010E946F034B01F6
:100E30005C01C114D104E104F104F1F00E946F03DC
:100E4000DC01CB0188199909AA09BB09883E9340A6
:100E5000A105B10570F321E0C21AD108E108F1083B
:100E600088EE880E83E0981EA11CB11CC114D10429
:100E7000E104F10419F7DDCFFF90EF90DF90CF9000
:100E8000BF90AF909F908F900895CF938091A303D0
:100E9000181674F460E00E94740664EF71E080E05C
:100EA00090E00E940B0761E08091A3030E9474060A
:100EB000C091A603C83008F0C7E0C093A60381E242
:100EC0000E94A3068C2F80610E94A30680E20E94EC
:100ED000A3068091A5030E94BE0680E20E94A3069D
:100EE0008CE0CF910C94A306EF92FF920F931F9387
:100EF000CF93DF939091A703992361F08091A8038A
:100F00008F5F891718F48093A80304C01092A80378
:100F10000E94450700E011E0C0E08C2F80640E9431
:100F2000A30680E80E94A30661E08091A2030E94CC
:100F300074068091A40318161CF460E00E947406E5
:100F40007801D4E5F70181917F010E940C03D15013
:100F5000C9F78091A40318161CF461E00E9474067E
:100F6000CF5F0C5A1F4FC630C1F680E4DF91CF919E
:100F70001F910F91FF90EF900C94A3062FB7F89458
:100F800060917D0370917E0380917F039091800337
:100F90002FBF0895CF92DF92EF92FF920F931F938E
:100FA000CF93DF936C017A018B01C0E0D0E0CE15C6
:100FB000DF0581F0D8016D918D01D601ED91FC9195
:100FC0000190F081E02DC6010995892B11F0219641
:100FD000EECF7E01C701DF91CF911F910F91FF905E
:100FE000EF90DF90CF900895FC0177FD68C0808579
:100FF0009185681779070CF062C057FD60C0828543
:101000009385481759070CF05AC08689823059F0E9
:101010008330B1F08130D1F48FE290E0861B970BE2
:10102000BA01AC0113C083E590E0FC01E61BF70BAD
:10103000BF018FE290E0FC01E41BF50BAF0106C09D
:1010400083E590E0841B950BAB01BC016435710511
:10105000B0F54033510598F5CA01E3E095958795C1
:10106000EA95E1F747705527232BA1F024E5289F47
:10107000F001299FF00D11246E0F7F1FFB01E0503E
:10108000FF4F81E090E001C0880F4A95EAF7908118
:10109000892B14C024E5289FF001299FF00D11240D
:1010A0006E0F7F1FFB01E050FF4F81E090E001C019
:1010B000880F4A95EAF78095908189238083089567
:1010C0000895FC016370668B848195812681378148
:1010D000613039F0633029F0918780873387228728
:1010E0000895318720879387828708956F927F9232
:1010F0008F929F92AF92BF92CF92DF92EF92FF9228
:101100000F931F93CF93DF93EC014B015A016901B9
:101110003801E881F9810284F385E02D0995E881A1
:10112000F9810288F389E02D87019601A501B401B8
:10113000CE010995A501460D571D41505109E88181
:10114000F9810288F389E02D9601B401CE01099559
:10115000E881F9810088F189E02D9301A501B401AE
:10116000CE010995C80CD91CB60161507109E881FE
:10117000F9810088F189E02D9301A501CE0109953F
:10118000E881F9810688F789E02DCE01DF91CF91C2
:101190001F910F91FF90EF90DF90CF90BF90AF9095
:1011A0009F908F907F906F9009948F929F92AF92B3
:1011B000BF92CF92DF92EF92FF920F931F93CF9344
:1011C000DF934C016B015A01E901DC01ED91FC91C7
:1011D0006217730781F40417150724F48B2D580147
:1011E000042F182F0A191B0998012F5F3F4F048CF9
:1011F000F58DE02D12C04017510709F52617370766
:1012000024F48D2D6901C62FD82F9E012C193D097C
:101210002F5F3F4F068CF78DE02D8701A501B601AA
:10122000C4010995DF91CF911F910F91FF90EF902D
:10123000DF90CF90BF90AF909F908F9008950284E1
:10124000F385E02D0995D401ED91FC910488F58991
:10125000E02D9E01A501B601C4010995D401ED91CF
:10126000FC910688F789E02DC401DF91CF911F9191
:101270000F91FF90EF90DF90CF90BF90AF909F9035
:101280008F900994EF92FF920F931F93DC011A96AF
:101290000D911C911B9718962D913C911997ED91EA
:1012A000FC9100A0F1A1E02D7B0140E050E060E066
:1012B00070E009951F910F91FF90EF9008954F9264
:1012C0005F926F927F928F929F92AF92BF92CF92D6
:1012D000DF92EF92FF920F931F93CF93DF936C01F6
:1012E0002B015A0139014801DC01ED91FC91028486
:1012F000F385E02D0995E201640C751CD601ED9192
:10130000FC91C615D7055CF40088F189E02D8701B2
:101310009401A501BE01C60109952196EFCF06886B
:10132000F789E02DC601DF91CF911F910F91FF90BA
:10133000EF90DF90CF90BF90AF909F908F907F9075
:101340006F905F904F9009948F929F92AF92BF924F
:10135000CF92DF92EF92FF920F931F93CF93DF9381
:10136000EC015B014A016901E881F9810284F3859E
:10137000E02D099595012C0D3D1D21503109E88185
:10138000F9810488F589E02D78018401A401B50173
:10139000CE010995E881F9810688F789E02DCE0113
:1013A000DF91CF911F910F91FF90EF90DF90CF9041
:1013B000BF90AF909F908F9009948F929F92AF9221
:1013C000BF92CF92DF92EF92FF920F931F93CF9332
:1013D000DF93EC015B014A0169017801E881F98141
:1013E0000284F385E02D0995C80CD91C86010150B3
:1013F0001109E881F9810488F589E02D9501A4019E
:10140000B501CE010995E881F9810688F789E02DBB
:10141000CE01DF91CF911F910F91FF90EF90DF9060
:10142000CF90BF90AF909F908F9009940895EF92C6
:10143000FF920F931F93DC01ED91FC9100A0F1A1AD
:10144000E02D09951F910F91FF90EF9008950F9354
:101450001F93DC01ED91FC91068CF78DE02D099531
:101460001F910F9108950F931F93DC01ED91FC9153
:10147000048CF58DE02D09951F910F910895DC01E5
:10148000ED91FC910084F185E02D09942F923F921B
:101490004F925F926F927F928F929F92AF92BF9284
:1014A000CF92DF92EF92FF920F931F93CF93DF9330
:1014B00000D000D000D0CDB7DEB72C017E836D8385
:1014C0006A015901C801FC82EB824801841A950A1D
:1014D00097FE03C091948194910835012D813E813E
:1014E000621A730A77FE03C07194619471086814DC
:1014F00079045CF43A2D2B2D5C01832F922F3D81D2
:101500002E81DE82CD82C32ED22EAD81BE81AA165F
:10151000BB065CF43C2D2D2D6C01832F922F3D8159
:101520002E81BE82AD82A32EB22E85012D813E81F9
:10153000021B130B1C012C183D0837FE03C031940D
:1015400021943108780117FF03C03FEFE31AF30A33
:10155000F594E794C816D9062CF08FEF9FEF9A8385
:10156000898304C0A1E0B0E0BA83A9832D813E81C4
:10157000A216B30624F1D201ED91FC910484F58505
:10158000E02D2B813C816814790424F44D815E8127
:10159000B60103C0A6016D817E81C2010995E218E2
:1015A000F308F7FE06C029813A81C20ED31EE00E71
:1015B000F11E8D819E8101969E838D83D7CF2696C5
:1015C0000FB6F894DEBF0FBECDBFDF91CF911F9154
:1015D0000F91FF90EF90DF90CF90BF90AF909F90D2
:1015E0008F907F906F905F904F903F902F900895D5
:1015F000089580E090E008950E94BC168F929F921B
:10160000AF92CF92EF92FF920F931F93CF93DF93FE
:10161000EC01262F898D9A8D009709F042C06A301F
:1016200059F41D861C862D898E859F8538E0239F61
:10163000800D911D112443C06D3009F4AAC08F891B
:101640008823C9F03C898C859D8546E0349F800DB8
:10165000911D1124488559854817590764F41D8642
:101660001C863D898E859F8548E0349F800D911DA5
:1016700011249F878E87EA88FB88088919894E85FF
:101680005F856C857D85AD88CC88CE010E9417046E
:101690002C898C859D8536E0239F800D911D11241A
:1016A0003EC06A3079F41D861C862D89FC0138966F
:1016B000E4918E859F852E9F800D911D11249F871B
:1016C0008E8767C06D3009F464C0FC013496349194
:1016D000631708F45EC03296E491E61708F459C027
:1016E000462F431B342FFC0132968590949047E09F
:1016F000349F800C911C1124F40132963491319660
:10170000E491332311F0E1110DC0F4013496E4911A
:101710002C898C859D85E29F800D911D11249D87CC
:101720008C8737C0F401359644915F89552319F1B0
:101730005C89E32FF0E0E40FF11D47FDFA955E9F11
:10174000B0015F9F700D11244C855D85460F571FBA
:10175000688579856417750774F41D861C863D8934
:10176000FC013896E4918E859F853E9F800D911DEA
:1017700011249F878E87EA88FB88088919894E85FE
:101780005F856C857D85AD88CC88CE010E9417046D
:10179000BCCF81E090E0DF91CF911F910F91FF903E
:1017A000EF90CF90AF909F908F9008951F920F92DF
:1017B0000FB60F9211242F933F938F939F93AF9364
:1017C000BF9380917D0390917E03A0917F03B091A0
:1017D00080033091AF0323E0230F2D3720F40196CF
:1017E000A11DB11D05C026E8230F0296A11DB11D44
:1017F0002093AF0380937D0390937E03A0937F0398
:10180000B09380038091810390918203A091830320
:10181000B09184030196A11DB11D80938103909323
:101820008203A0938303B0938403BF91AF919F91F0
:101830008F913F912F910F900FBE0F901F90189591
:10184000789484B5826084BD84B5816084BD85B59B
:10185000826085BD85B5816085BD80916E008160A7
:1018600080936E001092810080918100826080934D
:10187000810080918100816080938100809180004F
:101880008160809380008091B10084608093B1007A
:101890008091B00081608093B00080917A00846074
:1018A00080937A0080917A00826080937A008091A0
:1018B0007A00816080937A0080917A0080688093BA
:1018C0007A001092C10080E090E00E94231490936F
:1018D00077038093760361E082E10E94CF0661E0A6
:1018E00082E10E9474068091A0038F3F29F49091B9
:1018F000A1039F3F09F460C661E00E94CF0661E04A
:101900008091A1030E94CF068091A103082E000CB4
:10191000990BFC01EA57FF4FE491F0E0EE0FFF1F37
:10192000EE58FF4F259134913093AC032093AB03D5
:10193000FC01E656FF4FE491E093AE038091A003D3
:10194000082E000C990BFC01EA57FF4FE491F0E0E0
:10195000EE0FFF1FEE58FF4F259134913093AA03ED
:101960002093A903FC01E656FF4FE491E093AD03F9
:1019700061E08091A2030E94CF068091A303181614
:101980001CF461E00E94CF068091A40318161CF499
:1019900061E00E94CF0684E08093A60388E28093F2
:1019A000A5031092A7031092A8030E9445070E9466
:1019B000740782E30E94BE060E94740788EF91E0DC
:1019C000E0E0F1E0DF019C011D9221503040E1F7A1
:1019D0001092920310929103109294031092930329
:1019E00062E08EE00E94CF0662E08FE00E94CF06A8
:1019F00062E080E10E94CF0662E088E00E94CF06AC
:101A000061E086E00E94CF0661E086E00E94CF069A
:101A100060E086E00E947406C1E054E0C52ED12C3F
:101A2000EE24EA94F12C01E010E024E530E040E0FF
:101A300050E060E070E085E893E00E94A40924E5AE
:101A400030E041E050E060E070E085E893E00E9423
:101A5000A40920E330E040E050E060E070E085E879
:101A600093E00E94DD0920E330E040E050E061E0D7
:101A700070E085E893E00E94DD0920E330E040E07B
:101A800050E062E070E085E893E00E94DD0924E523
:101A900030E04FE250E060E070E085E893E00E94C3
:101AA000A40924E530E04EE250E060E070E085E813
:101AB00093E00E94A40924E530E04DE250E060E0AC
:101AC00070E085E893E00E94A40920E330E040E064
:101AD00050E063E570E085E893E00E94DD0920E3D3
:101AE00030E040E050E062E570E085E893E00E947D
:101AF000DD0920E330E040E050E061E570E085E89A
:101B000093E00E94DD0923E530E049E150E060E028
:101B100070E085E893E00E94A40923E530E04AE103
:101B200050E060E070E085E893E00E94A40923E5BE
:101B300030E04BE150E060E070E085E893E00E9427
:101B4000A4092AE130E049E150E063E270E085E871
:101B500093E00E94DD092AE130E049E150E064E2CF
:101B600070E085E893E00E94DD092AE130E049E178
:101B700050E065E270E085E893E00E94DD090E9494
:101B80007407A0E0B1E0E8EFF1E01D923197E9F7CA
:101B900025E030E0309392032093910383E090E0BE
:101BA00090939403809393038093990380939A0373
:101BB00080917603909177030E94E703AAE3B0E057
:101BC000B0939203A0939103E0E1F0E0F0939403CB
:101BD000E0939303C0939903C0939A0384E293E044
:101BE0000E949403C0939903C0939A03D0929203E6
:101BF000C09291032DE130E030939403209393033E
:101C0000409068035090690360906A0370906B0382
:101C1000A3019201C301B2010E94B716882319F0F3
:101C200088E293E01AC053014201E894B7F82FEF1D
:101C30003FEF4FE75FE7C501B4010E94B71681117E
:101C40000FC02FEF3FEF4FE75FE7C501B4010E94E0
:101C5000E61418162CF48CE293E00E94940376C0EC
:101C60002FEF3FEF4FE75FE4C301B2010E9445163B
:101C700018161CF480E393E0F0CF2FEF3FEF4FE70F
:101C80005FECC301B2010E94E61487FDF3CF20E0B0
:101C900030E0A901C301B2010E94E61487FF09C028
:101CA0006DE285E893E00E94FE0A77FA709477F877
:101CB00070942AE037ED43EA5BE3C301B2010E946E
:101CC0007A144B015C010E9464152B013C010E94B7
:101CD00093159B01AC01C501B4010E9479144B011D
:101CE0005C014AE0C301B2010E94A6036EE285E8EE
:101CF00093E00E94FE0A20E030E040E251E4C5019A
:101D0000B4010E944A164B015C010E9464152B012C
:101D1000612C712C4AE0C301B2010E94A603C301E9
:101D2000B2010E9493159B01AC01C501B4010E9450
:101D3000791420E030E040E251E40E944A160E940B
:101D4000641580E090E04AE00E94A60384E393E0FB
:101D50000E94940387E290E0909392038093910312
:101D6000ADE1B0E0B0939403A0939303C0939903C3
:101D7000C0939A0386E393E00E949403E2E3F0E0C9
:101D8000F0939203E093910305E210E01093940323
:101D900000939303C0939903C0939A038CE393E059
:101DA0000E949403C0939903C0939A03D092920324
:101DB000C092910310939403009393038091660360
:101DC000909167030E94E70381E493E00E949403EB
:101DD00088E00E944B063C018EE00E944B068C017D
:101DE00081E00115110509F080E080937C0380916A
:101DF0004F030115110509F065C4811123C00E942C
:101E0000BE0720914B0330914C0340914D035091FC
:101E10004E03DC01CB01821B930BA40BB50B813568
:101E20009105A105B10570F0C0934F03C0937403F1
:101E30000E94BE0760934B0370934C0380934D0345
:101E400090934E0380914A038823D1F080914903F7
:101E5000811116C00E94BE072091450330914603B0
:101E60004091470350914803DC01CB01821B930B47
:101E7000A40BB50B85369105A105B10508F0DCC3AF
:101E800080914F038823D1F1809149038823B9F0D1
:101E90000E94BE0720914B0330914C0340914D03AB
:101EA00050914E03DC01CB01821B930BA40BB50BAD
:101EB000843F9140A105B10508F4C3C323C08091BC
:101EC0004A03882321F10E94BE07209145033091E7
:101ED00046034091470350914803DC01CB01821B2C
:101EE000930BA40BB50B84369105A105B10578F4CD
:101EF00010924F0310924A03C09349038091490303
:101F00008111C6CF80914F03882309F444C080918A
:101F1000780381111BC080917503811117C00E9445
:101F2000BE0720914B0330914C0340914D035091DB
:101F30004E03DC01CB01821B930BA40BB50B853F39
:101F40009140A105B10510F0C0937503012B19F163
:101F50000E94BE0700914B0310914C0320914D034A
:101F600030914E03DC01CB01801B910BA20BB30B14
:101F7000853F9140A105B10570F010924F0310927A
:101F800075030E94BE0760934B0370934C038093CC
:101F90004D0390934E038FE00E944B068C0181E02D
:101FA0000115110509F080E080937B0380915A03AD
:101FB0000115110509F0B6C3811123C00E94BE07A7
:101FC0002091560330915703409158035091590383
:101FD000DC01CB01821B930BA40BB50B8135910562
:101FE000A105B10570F0C0935A03C09370030E941D
:101FF000BE076093560370935703809358039093E2
:102000005903809155038823D1F0809154038111A5
:1020100016C00E94BE072091500330915103409199
:10202000520350915303DC01CB01821B930BA40B91
:10203000B50B85369105A105B10508F011C3809156
:102040005A038823D1F1809154038823B9F00E9468
:10205000BE07209156033091570340915803509189
:102060005903DC01CB01821B930BA40BB50B843FFE
:102070009140A105B10508F4F8C223C08091550331
:10208000882321F10E94BE07209150033091510313
:102090004091520350915303DC01CB01821B930BFF
:1020A000A40BB50B84369105A105B10578F4109207
:1020B0005A0310925503C093540380915403811125
:1020C000C6CF80915A03882309F444C080917203DB
:1020D00081111BC080917103811117C00E94BE073E
:1020E0002091560330915703409158035091590362
:1020F000DC01CB01821B930BA40BB50B853F9140F8
:10210000A105B10510F0C0937103012B19F10E94D4
:10211000BE07009156031091570320915803309148
:102120005903DC01CB01801B910BA20BB30B853F44
:102130009140A105B10570F010925A0310927103FD
:102140000E94BE0760935603709357038093580311
:102150009093590380E10E944B068C0181E00115A8
:10216000110509F080E080937A03809165030115E1
:10217000110509F007C3811123C00E94BE072091F9
:102180006103309162034091630350916403DC0169
:10219000CB01821B930BA40BB50B81359105A105D7
:1021A000B10570F0C0936503C0936C030E94BE0735
:1021B000609361037093620380936303909364035D
:1021C000809160038823D1F080915F03811116C054
:1021D0000E94BE0720915B0330915C0340915D0338
:1021E00050915E03DC01CB01821B930BA40BB50B5A
:1021F00085369105A105B10508F046C280916503B9
:102200008823D1F180915F038823B9F00E94BE0733
:102210002091610330916203409163035091640304
:10222000DC01CB01821B930BA40BB50B843F9140C7
:10223000A105B10508F42DC223C080916003882355
:1022400021F10E94BE0720915B0330915C03409115
:102250005D0350915E03DC01CB01821B930BA40B49
:10226000B50B84369105A105B10578F4109265038C
:1022700010926003C0935F0380915F038111C6CF0A
:1022800080916503882309F444C080916E03811115
:102290001BC080916D03811117C00E94BE07209161
:1022A0006103309162034091630350916403DC0148
:1022B000CB01821B930BA40BB50B853F9140A1056D
:1022C000B10510F0C0936D03012B19F10E94BE07F8
:1022D00000916103109162032091630330916403C4
:1022E000DC01CB01801B910BA20BB30B853F91400E
:1022F000A105B10570F01092650310926D030E9464
:10230000BE076093610370936203809363039093AD
:10231000640380917903811104C08091780388233C
:10232000A9F080917603909177030197181619060A
:102330002CF4909377038093760304C01092770374
:1023400010927603109279031092780380917503AE
:102350008823D1F0809174038111109274038091CD
:102360007603909177030197181619060CF4A0C113
:10237000109277031092760364E170E080E090E0C1
:102380000E940B071092750380917303811104C0A2
:10239000809172038823A9F080917603909177034E
:1023A00001968F3F91052CF49093770380937603E9
:1023B00004C0F0927703E0927603109273031092B8
:1023C0007203809171038823D1F080917003811191
:1023D00010927003809176039091770301968F3F5E
:1023E00091050CF46AC1F0927703E092760364E100
:1023F00070E080E090E00E940B07109271038091E2
:102400006F03811104C080916E03882321F0109224
:102410006F0310926E0380916D03882369F08091A1
:102420006C03811110926C0364E170E080E090E035
:102430000E940B0710926D0383E480937C008091CF
:102440007A00806480937A0080917A0086FDFCCFC8
:10245000609178008091790070E0782B072E000C55
:10246000880B990B0E94951527EE3BEF45EA50E447
:102470000E944A1620E030E040E85AE30E944A16E3
:102480001B012C01609368037093690380936A03B6
:1024900090936B0300917603109177032AE939E951
:1024A00049E95EE30E94EB14A20191010E944A16E1
:1024B0001B012C01B801012E000C880B990B0E9406
:1024C00095159B01AC01C201B1010E944A1620E0A2
:1024D00030E04FE753E40E94EB140E945D157093C7
:1024E00067036093660361E086E0672809F04EC0E9
:1024F0000E94CF060115110509F44AC00F3F1105CE
:1025000011F461E046C0E4EBF0E084918330F9F02F
:1025100048F48130B9F08230A1F584B5806284BD81
:1025200008BD3AC08730E9F0883019F1843049F5A8
:102530008091800080628093800010938B000093D4
:102540008A002AC084B5806884BD07BD25C08091FB
:102550008000806880938000109389000093880039
:102560001BC08091B00080688093B0000093B300DE
:1025700013C08091B00080628093B0000093B400DB
:102580000BC0003811050CF0BCCF02C00E94CF0672
:1025900060E086E00E947406609176037091770394
:1025A00080E090E00E94291480E090E0892B09F4FB
:1025B0003ACA0E94000034CACFB7F894809144030D
:1025C000811127C0E0E9F0E08491E4EAF0E0949121
:1025D000E82FF0E0EE0FFF1FE859FF4FA591B491EF
:1025E000EC91E92321F461E08AE00E94740661E045
:1025F0008AE00E94CF068CB580618CBD8CB580646A
:102600008CBD61E08DE00E94CF0661E08BE00E940E
:10261000CF06809144038F5F80934403CFBF8CB576
:102620008C7F8CBD8DB58E7F8DBD8CB5837F8CBD31
:102630008CB58F7D8CBD9CC910924A03C0937903E1
:102640001FCC10924903C09378030E94BE07609389
:102650004B0370934C0380934D0390934E0352CCE5
:1026600010925503C0937303EACC10925403C093A5
:1026700072030E94BE0760935603709357038093C2
:102680005803909359031DCD10926003C0936F03BC
:10269000B5CD10925F03C0936E030E94BE07609396
:1026A0006103709362038093630390936403E8CDA6
:1026B00090937703809376035FCE90937703809314
:1026C000760395CE882309F4BDCB80914A0381110E
:1026D000BDCB809149038111D7CB0E94BE072091C9
:1026E0004B0330914C0340914D0350914E03DC015C
:1026F000CB01821B930BA40BB50B843F9140A1052A
:10270000B10508F0C1CBC0934A0310924F030E9459
:10271000BE076093450370934603809347039093ED
:10272000480390CB882309F46CCC80915503811128
:102730006CCC80915403811186CC0E94BE072091FD
:102740005603309157034091580350915903DC01CF
:10275000CB01821B930BA40BB50B843F9140A105C9
:10276000B10508F070CCC093550310925A030E9433
:10277000BE0760935003709351038093520390936C
:1027800053033FCC882309F41BCD80916003811152
:102790001BCD80915F03811135CD0E94BE07209132
:1027A0006103309162034091630350916403DC0143
:1027B000CB01821B930BA40BB50B843F9140A10569
:1027C000B10508F01FCDC0936003109265030E940D
:1027D000BE0760935B0370935C0380935D039093EB
:1027E0005E03EECCE5E8F3E01382128224E530E0EC
:1027F0003583248380E390E0978386833187208725
:1028000093878287168A158614861786168681E036
:10281000858B848B2FEF3FEF338B228B318B208B7B
:10282000878B108E128E118E8CEF92E091838083B5
:102830008DE0838F87E0848F85E0858F83E0868FAE
:1028400084E0878F0895A8E1B0E042E050E00C9466
:1028500031140196272F0E9440140C943F14DC0180
:10286000CB01FC01F999FECF06C0F2BDE1BDF89A9B
:10287000319600B40D9241505040B8F70895262F7C
:10288000F999FECF92BD81BDF89A019700B4021666
:1028900039F01FBA20BD0FB6F894FA9AF99A0FBE14
:1028A0000895A1E21A2EAA1BBB1BFD010DC0AA1F91
:1028B000BB1FEE1FFF1FA217B307E407F50720F0A9
:1028C000A21BB30BE40BF50B661F771F881F991F24
:1028D0001A9469F760957095809590959B01AC016D
:1028E000BD01CF010895EE0FFF1F0590F491E02D7B
:1028F00009945058BB27AA270E9491140C940B16D8
:102900000E94FD1538F00E94041620F039F49F3F14
:1029100019F426F40C94FA150EF4E095E7FB0C94E8
:10292000F415E92F0E941C1658F3BA1762077307B3
:102930008407950720F079F4A6F50C943E160EF462
:10294000E0950B2EBA2FA02D0B01B90190010C01BF
:10295000CA01A0011124FF27591B99F0593F50F4D7
:10296000503E68F11A16F040A22F232F342F44272F
:10297000585FF3CF469537952795A795F040539527
:10298000C9F77EF41F16BA0B620B730B840BBAF0F7
:102990009150A1F0FF0FBB1F661F771F881FC2F762
:1029A0000EC0BA0F621F731F841F48F48795779576
:1029B0006795B795F7959E3F08F0B0CF9395880F30
:1029C00008F09927EE0F9795879508950E94D015E6
:1029D00008F481E008950E94FF140C940B160E94E5
:1029E000041658F00E94FD1540F029F45F3F29F0CD
:1029F0000C94F41551110C943F160C94FA150E9486
:102A00001C1668F39923B1F3552391F3951B550BCD
:102A1000BB27AA2762177307840738F09F5F5F4FB1
:102A2000220F331F441FAA1FA9F335D00E2E3AF0F0
:102A3000E0E832D091505040E695001CCAF72BD008
:102A4000FE2F29D0660F771F881FBB1F2617370759
:102A50004807AB07B0E809F0BB0B802DBF01FF278B
:102A600093585F4F3AF09E3F510578F00C94F4155F
:102A70000C943F165F3FE4F3983ED4F38695779528
:102A80006795B795F7959F5FC9F7880F911D969544
:102A9000879597F90895E1E0660F771F881FBB1FA0
:102AA000621773078407BA0720F0621B730B840B4D
:102AB000BA0BEE1F88F7E09508950E94641568949C
:102AC000B1110C943F1608950E94241688F09F5768
:102AD00098F0B92F9927B751B0F0E1F0660F771F42
:102AE000881F991F1AF0BA95C9F714C0B13091F038
:102AF0000E943E16B1E008950C943E16672F782F81
:102B00008827B85F39F0B93FCCF3869577956795FC
:102B1000B395D9F73EF490958095709561957F4F68
:102B20008F4F9F4F0895E89409C097FB3EF490950E
:102B30008095709561957F4F8F4F9F4F9923A9F096
:102B4000F92F96E9BB279395F69587957795679525
:102B5000B795F111F8CFFAF4BB0F11F460FF1BC069
:102B60006F5F7F4F8F4F9F4F16C0882311F096E9FC
:102B700011C0772321F09EE8872F762F05C06623AA
:102B800071F096E8862F70E060E02AF09A95660F63
:102B9000771F881FDAF7880F9695879597F908951C
:102BA000990F0008550FAA0BE0E8FEEF161617065E
:102BB000E807F907C0F012161306E407F50798F0C6
:102BC000621B730B840B950B39F40A2661F0232BDF
:102BD000242B252B21F408950A2609F4A140A6955B
:102BE0008FEF811D811D089597F99F6780E870E040
:102BF00060E008959FEF80EC089500240A94161673
:102C0000170618060906089500240A9412161306DA
:102C1000140605060895092E0394000C11F4882368
:102C200052F0BB0F40F4BF2B11F460FF04C06F5F84
:102C30007F4F8F4F9F4F089557FD9058440F551F5A
:102C400059F05F3F71F04795880F97FB991F61F02E
:102C50009F3F79F087950895121613061406551FA5
:102C6000F2CF4695F1DF08C0161617061806991F11
:102C7000F1CF86957105610508940895E894BB2706
:102C800066277727CB0197F908950E94D01508F49D
:102C90008FEF08950E945D160C940B160E94FD158F
:102CA00038F00E94041620F0952311F00C94F415CE
:102CB0000C94FA1511240C943F160E941C1670F304
:102CC000959FC1F3950F50E0551F629FF001729FD1
:102CD000BB27F00DB11D639FAA27F00DB11DAA1FE0
:102CE000649F6627B00DA11D661F829F2227B00D2D
:102CF000A11D621F739FB00DA11D621F839FA00DB8
:102D0000611D221F749F3327A00D611D231F849F07
:102D1000600D211D822F762F6A2F11249F5750405E
:102D20009AF0F1F088234AF0EE0FFF1FBB1F661FD9
:102D3000771F881F91505040A9F79E3F510580F0A2
:102D40000C94F4150C943F165F3FE4F3983ED4F3D3
:102D5000869577956795B795F795E7959F5FC1F746
:102D6000FE2B880F911D9695879597F908950E94DF
:102D7000D015880B990B089581E090E0F8940C949D
:062D8000C116F894FFCF1C
:102D8600000000000000000000000000000000003D
:102D9600000000000000000000000000000000002D
:102DA600000000000000C0E0F0F8FCFCFEFFFCE0C4
:102DB600000000000000000000000000000000000D
:102DC60000000000000000000000000000000000FD
:102DD60000000000000000000000000000000000ED
:102DE6000000000000F8F8F8F8F8F8F8F8F8F8F835
:102DF600F8F0F0E0E0C080C0FCFFFFFFFF7F3F7F00
:102E0600FFFFFFFFFF0000000000000000000000C1
:102E160000000000000000000000000000000000AC
:102E2600000000000000000000000000000000009C
:102E3600000000000000000000000F1F3F7FFFFFA2
:102E4600FFFFFFFFFFFFE7C7C7878F9F9FFFFFFFBC
:102E5600C1C0E0FCFFFFFFFFFFFCFCFCFCFEFEFE2A
:102E6600FCFCF8F8F0E0C0C0000000000000000024
:102E7600000000000000000000000000000000004C
:102E8600000000000000000000000000000000003C
:102E96000080C0E0F1FBFFFFFFFFFF7F1F0F0F87E2
:102EA600E7FFFFFF1F1F3FF9F8F8F8F8F8F8FDFFF6
:102EB600FFFFFFFFFFFFFFFF7F3F0F07010000003F
:102EC60000000000000000000000000000000000FC
:102ED60000000000000000000000000000000000EC
:102EE600000000F0FEFFFFFFFFFFFFFFFFFFFFFEFA
:102EF6007E3F3F0F1FFFFFFFFCF0E0F1FFFFFFFFEC
:102F0600FFFCF001010101010101010000000000C8
:102F160000000000000000000000000000000000AB
:102F2600000000000000000000000000000000009B
:102F36000000000000000003030303030303030172
:102F460001010100000000000000030F1F3F7F7F0A
:102F5600FFFFFFFF7F7F1F0300000000000000004F
:102F6600000000000000000000000000000000005B
:102F7600000000000000000000000000FE0ACA0772
:102F8600F90AF80AF407160A3F0A170A330A270A43
:102F9600460A160A61086008DD09A4095F094209A4
:102FA600D508760876616C006E616E00696E660003
:102FB6006F7666007600312E312E390073746162A9
:042FC6000077000090
:00000001FF
